{
  "contractName": "Regulator",
  "abi": [
    {
      "inputs": [
        {
          "internalType": "contract RahatERC20",
          "name": "_erc20",
          "type": "address"
        },
        {
          "internalType": "address",
          "name": "_admin",
          "type": "address"
        }
      ],
      "stateMutability": "nonpayable",
      "type": "constructor"
    },
    {
      "anonymous": false,
      "inputs": [
        {
          "indexed": true,
          "internalType": "address",
          "name": "vendor",
          "type": "address"
        },
        {
          "indexed": true,
          "internalType": "uint256",
          "name": "beneficiary",
          "type": "uint256"
        },
        {
          "indexed": false,
          "internalType": "uint256",
          "name": "amount",
          "type": "uint256"
        }
      ],
      "name": "ClaimAcquiredERC20",
      "type": "event"
    },
    {
      "anonymous": false,
      "inputs": [
        {
          "indexed": true,
          "internalType": "address",
          "name": "vendor",
          "type": "address"
        },
        {
          "indexed": true,
          "internalType": "uint256",
          "name": "phone",
          "type": "uint256"
        },
        {
          "indexed": false,
          "internalType": "uint256",
          "name": "amount",
          "type": "uint256"
        }
      ],
      "name": "ClaimApproved",
      "type": "event"
    },
    {
      "anonymous": false,
      "inputs": [
        {
          "indexed": true,
          "internalType": "address",
          "name": "vendor",
          "type": "address"
        },
        {
          "indexed": true,
          "internalType": "uint256",
          "name": "beneficiary",
          "type": "uint256"
        },
        {
          "indexed": false,
          "internalType": "uint256",
          "name": "amount",
          "type": "uint256"
        }
      ],
      "name": "ClaimedERC20",
      "type": "event"
    },
    {
      "anonymous": false,
      "inputs": [
        {
          "indexed": false,
          "internalType": "bytes",
          "name": "signature",
          "type": "bytes"
        },
        {
          "indexed": false,
          "internalType": "bytes32",
          "name": "digest",
          "type": "bytes32"
        },
        {
          "indexed": false,
          "internalType": "address",
          "name": "expectedSigner",
          "type": "address"
        },
        {
          "indexed": false,
          "internalType": "address",
          "name": "recoveredSigner",
          "type": "address"
        }
      ],
      "name": "InvalidSignature",
      "type": "event"
    },
    {
      "anonymous": false,
      "inputs": [
        {
          "indexed": true,
          "internalType": "bytes32",
          "name": "projectId",
          "type": "bytes32"
        },
        {
          "indexed": true,
          "internalType": "uint256",
          "name": "phone",
          "type": "uint256"
        },
        {
          "indexed": false,
          "internalType": "uint256",
          "name": "amount",
          "type": "uint256"
        }
      ],
      "name": "IssuedERC20",
      "type": "event"
    },
    {
      "anonymous": false,
      "inputs": [
        {
          "indexed": true,
          "internalType": "bytes32",
          "name": "role",
          "type": "bytes32"
        },
        {
          "indexed": true,
          "internalType": "bytes32",
          "name": "previousAdminRole",
          "type": "bytes32"
        },
        {
          "indexed": true,
          "internalType": "bytes32",
          "name": "newAdminRole",
          "type": "bytes32"
        }
      ],
      "name": "RoleAdminChanged",
      "type": "event"
    },
    {
      "anonymous": false,
      "inputs": [
        {
          "indexed": true,
          "internalType": "bytes32",
          "name": "role",
          "type": "bytes32"
        },
        {
          "indexed": true,
          "internalType": "address",
          "name": "account",
          "type": "address"
        },
        {
          "indexed": true,
          "internalType": "address",
          "name": "sender",
          "type": "address"
        }
      ],
      "name": "RoleGranted",
      "type": "event"
    },
    {
      "anonymous": false,
      "inputs": [
        {
          "indexed": true,
          "internalType": "bytes32",
          "name": "role",
          "type": "bytes32"
        },
        {
          "indexed": true,
          "internalType": "address",
          "name": "account",
          "type": "address"
        },
        {
          "indexed": true,
          "internalType": "address",
          "name": "sender",
          "type": "address"
        }
      ],
      "name": "RoleRevoked",
      "type": "event"
    },
    {
      "inputs": [],
      "name": "CREATE_CLAIM",
      "outputs": [
        {
          "internalType": "bytes32",
          "name": "",
          "type": "bytes32"
        }
      ],
      "stateMutability": "view",
      "type": "function"
    },
    {
      "inputs": [],
      "name": "DEFAULT_ADMIN_ROLE",
      "outputs": [
        {
          "internalType": "bytes32",
          "name": "",
          "type": "bytes32"
        }
      ],
      "stateMutability": "view",
      "type": "function"
    },
    {
      "inputs": [],
      "name": "GET_TOKENS_FROM_CLAIM",
      "outputs": [
        {
          "internalType": "bytes32",
          "name": "",
          "type": "bytes32"
        }
      ],
      "stateMutability": "view",
      "type": "function"
    },
    {
      "inputs": [],
      "name": "ISSUE_TOKEN",
      "outputs": [
        {
          "internalType": "bytes32",
          "name": "",
          "type": "bytes32"
        }
      ],
      "stateMutability": "view",
      "type": "function"
    },
    {
      "inputs": [],
      "name": "MANAGER_ROLE",
      "outputs": [
        {
          "internalType": "bytes32",
          "name": "",
          "type": "bytes32"
        }
      ],
      "stateMutability": "view",
      "type": "function"
    },
    {
      "inputs": [],
      "name": "MOBILIZER_ROLE",
      "outputs": [
        {
          "internalType": "bytes32",
          "name": "",
          "type": "bytes32"
        }
      ],
      "stateMutability": "view",
      "type": "function"
    },
    {
      "inputs": [],
      "name": "SERVER_ROLE",
      "outputs": [
        {
          "internalType": "bytes32",
          "name": "",
          "type": "bytes32"
        }
      ],
      "stateMutability": "view",
      "type": "function"
    },
    {
      "inputs": [],
      "name": "VENDOR_ROLE",
      "outputs": [
        {
          "internalType": "bytes32",
          "name": "",
          "type": "bytes32"
        }
      ],
      "stateMutability": "view",
      "type": "function"
    },
    {
      "inputs": [],
      "name": "erc20",
      "outputs": [
        {
          "internalType": "contract RahatERC20",
          "name": "",
          "type": "address"
        }
      ],
      "stateMutability": "view",
      "type": "function"
    },
    {
      "inputs": [
        {
          "internalType": "uint256",
          "name": "",
          "type": "uint256"
        }
      ],
      "name": "erc20Balance",
      "outputs": [
        {
          "internalType": "uint256",
          "name": "",
          "type": "uint256"
        }
      ],
      "stateMutability": "view",
      "type": "function"
    },
    {
      "inputs": [
        {
          "internalType": "uint256",
          "name": "",
          "type": "uint256"
        }
      ],
      "name": "erc20Issued",
      "outputs": [
        {
          "internalType": "uint256",
          "name": "",
          "type": "uint256"
        }
      ],
      "stateMutability": "view",
      "type": "function"
    },
    {
      "inputs": [
        {
          "internalType": "address",
          "name": "",
          "type": "address"
        }
      ],
      "name": "erc20IssuedBy",
      "outputs": [
        {
          "internalType": "uint256",
          "name": "",
          "type": "uint256"
        }
      ],
      "stateMutability": "view",
      "type": "function"
    },
    {
      "inputs": [
        {
          "internalType": "bytes32",
          "name": "role",
          "type": "bytes32"
        }
      ],
      "name": "getRoleAdmin",
      "outputs": [
        {
          "internalType": "bytes32",
          "name": "",
          "type": "bytes32"
        }
      ],
      "stateMutability": "view",
      "type": "function"
    },
    {
      "inputs": [
        {
          "internalType": "bytes32",
          "name": "role",
          "type": "bytes32"
        },
        {
          "internalType": "address",
          "name": "account",
          "type": "address"
        }
      ],
      "name": "grantRole",
      "outputs": [],
      "stateMutability": "nonpayable",
      "type": "function"
    },
    {
      "inputs": [
        {
          "internalType": "bytes32",
          "name": "role",
          "type": "bytes32"
        },
        {
          "internalType": "address",
          "name": "account",
          "type": "address"
        }
      ],
      "name": "hasRole",
      "outputs": [
        {
          "internalType": "bool",
          "name": "",
          "type": "bool"
        }
      ],
      "stateMutability": "view",
      "type": "function"
    },
    {
      "inputs": [
        {
          "internalType": "bytes[]",
          "name": "data",
          "type": "bytes[]"
        }
      ],
      "name": "multicall",
      "outputs": [
        {
          "internalType": "bytes[]",
          "name": "results",
          "type": "bytes[]"
        }
      ],
      "stateMutability": "nonpayable",
      "type": "function"
    },
    {
      "inputs": [
        {
          "internalType": "address",
          "name": "",
          "type": "address"
        }
      ],
      "name": "nonces",
      "outputs": [
        {
          "internalType": "uint256",
          "name": "",
          "type": "uint256"
        }
      ],
      "stateMutability": "view",
      "type": "function"
    },
    {
      "inputs": [
        {
          "internalType": "bytes32",
          "name": "",
          "type": "bytes32"
        }
      ],
      "name": "projectDisbursements",
      "outputs": [
        {
          "internalType": "uint256",
          "name": "disbursementAmount",
          "type": "uint256"
        },
        {
          "internalType": "uint256",
          "name": "disbursementFrequency",
          "type": "uint256"
        },
        {
          "internalType": "uint256",
          "name": "startDate",
          "type": "uint256"
        },
        {
          "internalType": "uint256",
          "name": "endDate",
          "type": "uint256"
        },
        {
          "internalType": "uint256",
          "name": "totalAmount",
          "type": "uint256"
        }
      ],
      "stateMutability": "view",
      "type": "function"
    },
    {
      "inputs": [
        {
          "internalType": "address",
          "name": "",
          "type": "address"
        },
        {
          "internalType": "bytes32",
          "name": "",
          "type": "bytes32"
        }
      ],
      "name": "recentERC20Claims",
      "outputs": [
        {
          "internalType": "uint256",
          "name": "amount",
          "type": "uint256"
        },
        {
          "internalType": "bytes32",
          "name": "otpHash",
          "type": "bytes32"
        },
        {
          "internalType": "bool",
          "name": "isReleased",
          "type": "bool"
        },
        {
          "internalType": "uint256",
          "name": "date",
          "type": "uint256"
        }
      ],
      "stateMutability": "view",
      "type": "function"
    },
    {
      "inputs": [
        {
          "internalType": "bytes32",
          "name": "role",
          "type": "bytes32"
        },
        {
          "internalType": "address",
          "name": "account",
          "type": "address"
        }
      ],
      "name": "renounceRole",
      "outputs": [],
      "stateMutability": "nonpayable",
      "type": "function"
    },
    {
      "inputs": [
        {
          "internalType": "uint256",
          "name": "",
          "type": "uint256"
        }
      ],
      "name": "retrievedBalance",
      "outputs": [
        {
          "internalType": "uint256",
          "name": "",
          "type": "uint256"
        }
      ],
      "stateMutability": "view",
      "type": "function"
    },
    {
      "inputs": [
        {
          "internalType": "bytes32",
          "name": "role",
          "type": "bytes32"
        },
        {
          "internalType": "address",
          "name": "account",
          "type": "address"
        }
      ],
      "name": "revokeRole",
      "outputs": [],
      "stateMutability": "nonpayable",
      "type": "function"
    },
    {
      "inputs": [
        {
          "internalType": "bytes4",
          "name": "interfaceId",
          "type": "bytes4"
        }
      ],
      "name": "supportsInterface",
      "outputs": [
        {
          "internalType": "bool",
          "name": "",
          "type": "bool"
        }
      ],
      "stateMutability": "view",
      "type": "function"
    },
    {
      "inputs": [
        {
          "internalType": "address",
          "name": "_account",
          "type": "address"
        }
      ],
      "name": "addAdmin",
      "outputs": [],
      "stateMutability": "nonpayable",
      "type": "function"
    },
    {
      "inputs": [
        {
          "internalType": "address",
          "name": "_account",
          "type": "address"
        }
      ],
      "name": "addServer",
      "outputs": [],
      "stateMutability": "nonpayable",
      "type": "function"
    },
    {
      "inputs": [
        {
          "internalType": "address",
          "name": "_account",
          "type": "address"
        }
      ],
      "name": "addVendor",
      "outputs": [],
      "stateMutability": "nonpayable",
      "type": "function"
    },
    {
      "inputs": [
        {
          "internalType": "address",
          "name": "_account",
          "type": "address"
        },
        {
          "internalType": "string",
          "name": "_projectId",
          "type": "string"
        }
      ],
      "name": "addMobilizer",
      "outputs": [],
      "stateMutability": "nonpayable",
      "type": "function"
    },
    {
      "inputs": [
        {
          "internalType": "address",
          "name": "_address",
          "type": "address"
        }
      ],
      "name": "getTokenIdsIssuedBy",
      "outputs": [
        {
          "internalType": "uint256[]",
          "name": "tokenIds",
          "type": "uint256[]"
        }
      ],
      "stateMutability": "view",
      "type": "function"
    },
    {
      "inputs": [
        {
          "internalType": "uint256",
          "name": "_phone",
          "type": "uint256"
        },
        {
          "internalType": "string",
          "name": "_projectId",
          "type": "string"
        }
      ],
      "name": "addBeneficiaryToProject",
      "outputs": [],
      "stateMutability": "nonpayable",
      "type": "function"
    },
    {
      "inputs": [
        {
          "internalType": "bytes32",
          "name": "_projectId",
          "type": "bytes32"
        },
        {
          "internalType": "uint256",
          "name": "_disbursementAmount",
          "type": "uint256"
        },
        {
          "internalType": "uint256",
          "name": "_disbursementFrequency",
          "type": "uint256"
        },
        {
          "internalType": "uint256",
          "name": "_startDate",
          "type": "uint256"
        },
        {
          "internalType": "uint256",
          "name": "_endDate",
          "type": "uint256"
        },
        {
          "internalType": "uint256",
          "name": "_totalAmount",
          "type": "uint256"
        }
      ],
      "name": "allocateBudgetToProject",
      "outputs": [],
      "stateMutability": "nonpayable",
      "type": "function"
    },
    {
      "inputs": [
        {
          "internalType": "string",
          "name": "_projectId",
          "type": "string"
        },
        {
          "internalType": "uint256",
          "name": "_phone",
          "type": "uint256"
        }
      ],
      "name": "fetchBeneficiaryBalance",
      "outputs": [
        {
          "internalType": "uint256",
          "name": "",
          "type": "uint256"
        }
      ],
      "stateMutability": "view",
      "type": "function"
    },
    {
      "inputs": [
        {
          "internalType": "bytes32",
          "name": "_projectId",
          "type": "bytes32"
        }
      ],
      "name": "getProjectBalance",
      "outputs": [
        {
          "internalType": "uint256",
          "name": "_balance",
          "type": "uint256"
        }
      ],
      "stateMutability": "view",
      "type": "function"
    },
    {
      "inputs": [
        {
          "internalType": "string",
          "name": "_projectId",
          "type": "string"
        },
        {
          "internalType": "uint256",
          "name": "_phone",
          "type": "uint256"
        },
        {
          "internalType": "uint256",
          "name": "_amount",
          "type": "uint256"
        }
      ],
      "name": "issueERC20ToBeneficiary",
      "outputs": [],
      "stateMutability": "nonpayable",
      "type": "function"
    },
    {
      "inputs": [
        {
          "internalType": "string",
          "name": "_projectId",
          "type": "string"
        },
        {
          "internalType": "uint256",
          "name": "_phone",
          "type": "uint256"
        },
        {
          "internalType": "uint256",
          "name": "_tokens",
          "type": "uint256"
        }
      ],
      "name": "createERC20Claim",
      "outputs": [],
      "stateMutability": "nonpayable",
      "type": "function"
    },
    {
      "inputs": [
        {
          "internalType": "address",
          "name": "_vendor",
          "type": "address"
        },
        {
          "internalType": "uint256",
          "name": "_phone",
          "type": "uint256"
        },
        {
          "internalType": "bytes32",
          "name": "_otpHash",
          "type": "bytes32"
        },
        {
          "internalType": "uint256",
          "name": "_timeToLive",
          "type": "uint256"
        }
      ],
      "name": "approveERC20Claim",
      "outputs": [],
      "stateMutability": "nonpayable",
      "type": "function"
    },
    {
      "inputs": [
        {
          "internalType": "uint256",
          "name": "_phone",
          "type": "uint256"
        },
        {
          "internalType": "string",
          "name": "_otp",
          "type": "string"
        }
      ],
      "name": "getERC20FromClaim",
      "outputs": [],
      "stateMutability": "nonpayable",
      "type": "function"
    },
    {
      "inputs": [
        {
          "internalType": "uint256",
          "name": "_data",
          "type": "uint256"
        }
      ],
      "name": "findHash",
      "outputs": [
        {
          "internalType": "bytes32",
          "name": "",
          "type": "bytes32"
        }
      ],
      "stateMutability": "pure",
      "type": "function"
    },
    {
      "inputs": [
        {
          "internalType": "string",
          "name": "_data",
          "type": "string"
        }
      ],
      "name": "findHash",
      "outputs": [
        {
          "internalType": "bytes32",
          "name": "",
          "type": "bytes32"
        }
      ],
      "stateMutability": "pure",
      "type": "function"
    },
    {
      "inputs": [
        {
          "internalType": "uint256[]",
          "name": "_array",
          "type": "uint256[]"
        }
      ],
      "name": "getArraySum",
      "outputs": [
        {
          "internalType": "uint256",
          "name": "sum",
          "type": "uint256"
        }
      ],
      "stateMutability": "pure",
      "type": "function"
    }
  ],
  "bytecode": "0x60806040523480156200001157600080fd5b5060405162002ae638038062002ae6833981016040819052620000349162000467565b62000041600032620000d9565b6200004e600082620000d9565b6200006a60008051602062002ac68339815191526000620000e9565b620000977f0aaf57387812c7f832412470a57567b5648a930069be49aa9c98d04f88520d346000620000e9565b620000b260008051602062002ac68339815191523362000134565b50600280546001600160a01b0319166001600160a01b039290921691909117905562000639565b620000e5828262000163565b5050565b600082815260208190526040808220600101805490849055905190918391839186917fbd79b86ffe0ab8e8776151514217cd7cacd52c909f66475c3af44e129f0b00ff9190a4505050565b60008281526020819052604090206001015462000152813362000203565b6200015e838362000163565b505050565b6000828152602081815260408083206001600160a01b038516845290915290205460ff16620000e5576000828152602081815260408083206001600160a01b03851684529091529020805460ff19166001179055620001bf3390565b6001600160a01b0316816001600160a01b0316837f2f8788117e7eff1d82e926ec794901d17c78024a50270940304540a733656f0d60405160405180910390a45050565b6000828152602081815260408083206001600160a01b038516845290915290205460ff16620000e5576200024d816001600160a01b03166014620002a760201b620014f11760201c565b62000263836020620014f1620002a7821b17811c565b60405160200162000276929190620004a6565b60408051601f198184030181529082905262461bcd60e51b82526200029e916004016200051f565b60405180910390fd5b60606000620002b88360026200056f565b620002c590600262000554565b6001600160401b03811115620002df57620002df6200060a565b6040519080825280601f01601f1916602001820160405280156200030a576020820181803683370190505b509050600360fc1b81600081518110620003285762000328620005f4565b60200101906001600160f81b031916908160001a905350600f60fb1b816001815181106200035a576200035a620005f4565b60200101906001600160f81b031916908160001a9053506000620003808460026200056f565b6200038d90600162000554565b90505b60018111156200040f576f181899199a1a9b1b9c1cb0b131b232b360811b85600f1660108110620003c557620003c5620005f4565b1a60f81b828281518110620003de57620003de620005f4565b60200101906001600160f81b031916908160001a90535060049490941c936200040781620005c4565b905062000390565b508315620004605760405162461bcd60e51b815260206004820181905260248201527f537472696e67733a20686578206c656e67746820696e73756666696369656e7460448201526064016200029e565b9392505050565b600080604083850312156200047b57600080fd5b8251620004888162000620565b60208401519092506200049b8162000620565b809150509250929050565b7f416363657373436f6e74726f6c3a206163636f756e7420000000000000000000815260008351620004e081601785016020880162000591565b7001034b99036b4b9b9b4b733903937b6329607d1b60179184019182015283516200051381602884016020880162000591565b01602801949350505050565b60208152600082518060208401526200054081604085016020870162000591565b601f01601f19169190910160400192915050565b600082198211156200056a576200056a620005de565b500190565b60008160001904831182151516156200058c576200058c620005de565b500290565b60005b83811015620005ae57818101518382015260200162000594565b83811115620005be576000848401525b50505050565b600081620005d657620005d6620005de565b506000190190565b634e487b7160e01b600052601160045260246000fd5b634e487b7160e01b600052603260045260246000fd5b634e487b7160e01b600052604160045260246000fd5b6001600160a01b03811681146200063657600080fd5b50565b61247d80620006496000396000f3fe608060405234801561001057600080fd5b50600436106101fd5760003560e01c8063704802751161011b578063ac9650d8116100a8578063ac9650d8146104ee578063c0d955d61461050e578063cf784eda14610521578063d1e6716714610541578063d547741f146105ad578063eaad46f5146105c0578063ec87621c146105d3578063f5216216146105fa578063fa32906e1461061a578063ff1f54eb1461067f57600080fd5b806370480275146103ec57806370c75107146103ff578063785e9e86146104125780637ecebe001461043d5780638072d6aa1461045d5780638bbab5c71461047057806391d1485414610497578063926a694d146104aa57806394343cd2146104bf578063a217fddf146104e657600080fd5b80632d41d559116101995780632d41d5591461031f5780632f2ff15d146103325780633098b74b14610345578063351c3d0b1461035857806336568abe1461037857806336f65f951461038b57806345e0f7531461039e578063494101ff146103b15780634c91b44e146103c45780635cbd99d4146103d957600080fd5b806301ffc9a714610202578063055ee0701461022a57806310b86f021461025857806318cf2834146102785780631c46ad9b1461028d578063237c9db3146102a25780632384e105146102c2578063248a9ca3146102e957806327fa7a201461030c575b600080fd5b610215610210366004611ebd565b610692565b60405190151581526020015b60405180910390f35b61024a610238366004611e35565b60036020526000908152604090205481565b604051908152602001610221565b61024a610266366004611e35565b60056020526000908152604090205481565b61024a60008051602061240183398151915281565b6102a061029b366004611fac565b6106a3565b005b61024a6102b0366004611c28565b600b6020526000908152604090205481565b61024a7fcfa8166f1bb1b8818c3767a9ffd776afbbe3409a468070bb860831e01b56549981565b61024a6102f7366004611e35565b60009081526020819052604090206001015490565b6102a061031a366004611fac565b61070c565b6102a061032d366004611cba565b61099c565b6102a0610340366004611e4e565b610c03565b61024a610353366004611d67565b610c2e565b61024a610366366004611e35565b60046020526000908152604090205481565b6102a0610386366004611e4e565b610c7a565b6102a0610399366004611e7a565b610cf8565b6102a06103ac366004611c28565b610da5565b61024a6103bf366004611e35565b610de7565b61024a6000805160206123e183398151915281565b6102a06103e7366004611c28565b610e1f565b6102a06103fa366004611c28565b610e5e565b61024a61040d366004611ee7565b610e90565b600254610425906001600160a01b031681565b6040516001600160a01b039091168152602001610221565b61024a61044b366004611c28565b60016020526000908152604090205481565b61024a61046b366004611f1b565b610ea3565b61024a7f043620c1e1c33ecf60d9dadc62571b96554338b68ef3636e715e52a286bea92e81565b6102156104a5366004611e4e565b610fba565b61024a6000805160206123c183398151915281565b61024a7f8ff5d84bbad5f252f2ee1916646e221e55645205d2f803ebe6a7d6ba8fa4185d81565b61024a600081565b6105016104fc366004611cf3565b610fe3565b6040516102219190612093565b6102a061051c366004611f5f565b6110d7565b61024a61052f366004611e35565b60009081526008602052604090205490565b61058761054f366004611c43565b600e60209081526000928352604080842090915290825290208054600182015460028301546003909301549192909160ff9091169084565b604080519485526020850193909352901515918301919091526060820152608001610221565b6102a06105bb366004611e4e565b61131d565b6102a06105ce366004611c6d565b611343565b61024a7faf290d8680820aad922855f39b306097b20e28774d6c1ad35a20325630c3a02c81565b61060d610608366004611c28565b6113a7565b60405161022191906120f5565b610657610628366004611e35565b600f60205260009081526040902080546001820154600283015460038401546004909401549293919290919085565b604080519586526020860194909452928401919091526060830152608082015260a001610221565b6102a061068d366004611f5f565b6113cb565b600061069d82611693565b92915050565b6106bb60008051602061240183398151915233610fba565b6106e05760405162461bcd60e51b81526004016106d79061214c565b60405180910390fd5b60006106eb82610e90565b6000818152600d6020526040902090915061070690846116c8565b50505050565b6107246000805160206123c183398151915233610fba565b6107405760405162461bcd60e51b81526004016106d790612196565b600061074b83610de7565b336000908152600e60209081526040808320848452909152902060028101549192509060ff166107c95760405162461bcd60e51b815260206004820152602360248201527f52414841543a20436c61696d20686173206e6f74206265656e2072656c65617360448201526232b21760e91b60648201526084016106d7565b42816003015410156108275760405162461bcd60e51b815260206004820152602160248201527f52414841543a20436c61696d2068617320616c726561647920657870697265646044820152601760f91b60648201526084016106d7565b600061083284610e90565b336000908152600e60209081526040808320878452909152902060010154909150811461089d5760405162461bcd60e51b81526020600482015260196024820152782920a420aa1d1027aa28103234b2103737ba1036b0ba31b41760391b60448201526064016106d7565b8154600086815260056020526040812080548392906108bd908490612294565b90915550506002838101805460ff19169055600080855560038501555460405163a9059cbb60e01b8152336004820152602481018390526001600160a01b039091169063a9059cbb90604401602060405180830381600087803b15801561092357600080fd5b505af1158015610937573d6000803e3d6000fd5b505050506040513d601f19601f8201168201806040525081019061095b9190611e13565b50604051818152869033907fe4de809bf00bba73c562150b76ba81e5af05183458342bfdb09a7c9e303813e5906020015b60405180910390a3505050505050565b6109b460008051602061240183398151915233610fba565b6109d05760405162461bcd60e51b81526004016106d79061214c565b60006109db84610de7565b6001600160a01b0386166000908152600e602090815260408083208484529091529020600381015491925090610a615760405162461bcd60e51b815260206004820152602560248201527f52414841543a20436c61696d20686173206e6f74206265656e2063726561746560448201526419081e595d60da1b60648201526084016106d7565b62015180831115610acc5760405162461bcd60e51b815260206004820152602f60248201527f52414841543a54696d6520546f204c6976652073686f756c64206265206c657360448201526e73207468616e20323420686f75727360881b60648201526084016106d7565b6003810154610ade9062015180612294565b421115610b395760405162461bcd60e51b815260206004820152602360248201527f52414841543a20436c61696d206973206f6c646572207468616e20323420686f60448201526275727360e81b60648201526084016106d7565b600281015460ff1615610b9e5760405162461bcd60e51b815260206004820152602760248201527f52414841543a20436c61696d2068617320616c7265616479206265656e2072656044820152663632b0b9b2b21760c91b60648201526084016106d7565b600180820185905560028201805460ff19169091179055610bbf8342612294565b6003820155805460405190815285906001600160a01b038816907f05ca75b0d90f1dd046ad3b8c1ec4a461042c3d33518b9b67d9feafc7d8d3c6cf9060200161098c565b600082815260208190526040902060010154610c1f81336116d4565b610c298383611738565b505050565b6000805b8251811015610c7457828181518110610c4d57610c4d612394565b602002602001015182610c609190612294565b915080610c6c81612339565b915050610c32565b50919050565b6001600160a01b0381163314610cea5760405162461bcd60e51b815260206004820152602f60248201527f416363657373436f6e74726f6c3a2063616e206f6e6c792072656e6f756e636560448201526e103937b632b9903337b91039b2b63360891b60648201526084016106d7565b610cf482826117bc565b5050565b818310610d585760405162461bcd60e51b815260206004820152602860248201527f656e642064617465206d7573742062652067726561746572207468616e207374604482015267617274206461746560c01b60648201526084016106d7565b60008681526008602052604081208054839290610d76908490612294565b90915550506000958652600f602052604090952093845560018401929092556002830155600382015560040155565b610db0600033610fba565b610dcc5760405162461bcd60e51b81526004016106d7906121e0565b610de46000805160206123c183398151915282610c03565b50565b6000610df282611821565b604051602001610e029190612008565b604051602081830303815290604052805190602001209050919050565b610e2a600033610fba565b610e465760405162461bcd60e51b81526004016106d7906121e0565b610de460008051602061240183398151915282610c03565b610e69600033610fba565b610e855760405162461bcd60e51b81526004016106d7906121e0565b610de4600082610c03565b600081604051602001610e029190612008565b600080600f6000610eb386610e90565b81526020019081526020016000206040518060a001604052908160008201548152602001600182015481526020016002820154815260200160038201548152602001600482015481525050905060004282604001511115610f195760009250505061069d565b6020820151610f2d5760009250505061069d565b8160600151421115610f6357816020015182604001518360600151610f5291906122df565b610f5c91906122ac565b9050610f84565b60208201516040830151610f7790426122df565b610f8191906122ac565b90505b6000848152600560205260408120548351909190610fa39084906122c0565b9050610faf82826122df565b979650505050505050565b6000918252602082815260408084206001600160a01b0393909316845291905290205460ff1690565b6060816001600160401b03811115610ffd57610ffd6123aa565b60405190808252806020026020018201604052801561103057816020015b606081526020019060019003908161101b5790505b50905060005b828110156110d0576110a03085858481811061105457611054612394565b90506020028101906110669190612217565b8080601f01602080910402602001604051908101604052809392919081815260200183838082843760009201919091525061192692505050565b8282815181106110b2576110b2612394565b602002602001018190525080806110c890612339565b915050611036565b5092915050565b6110e2600033610fba565b8061110057506111006000805160206123e183398151915233610fba565b61116b5760405162461bcd60e51b815260206004820152603660248201527f52414841543a2053656e646572204d757374206265206120726567697374657260448201527532b21020b236b4b71027b91026b7b134b634bd32b91760511b60648201526084016106d7565b600061117684610e90565b90506111906000805160206123e183398151915233610fba565b1561120d5760008181526009602052604090206111ad903361194b565b61120d5760405162461bcd60e51b815260206004820152602b60248201527f6d6f62696c697a6572206973206e6f74206f6e626f617264656420746f20676960448201526a1d995b881c1c9bda9958dd60aa1b60648201526084016106d7565b336000908152600b60205260408120805484929061122c908490612294565b90915550506000818152600860205260409020548211156112ae5760405162461bcd60e51b815260206004820152603660248201527f52414841543a20416d6f756e742069732067726561746572207468616e2072656044820152751b585a5b9a5b99c8141c9bda9958dd08109d5919d95d60521b60648201526084016106d7565b600081815260086020526040812080548492906112cc9084906122df565b909155506112dc9050838361196d565b82817f707197b34e0edb88707154f8a8ea9f3c8d891eb60a28dac25cc79bf23c3aa5c18460405161130f91815260200190565b60405180910390a350505050565b60008281526020819052604090206001015461133981336116d4565b610c2983836117bc565b61134e600033610fba565b61136a5760405162461bcd60e51b81526004016106d7906121e0565b600061137582610e90565b905061138f6000805160206123e183398151915284610c03565b600081815260096020526040902061070690846119c3565b6001600160a01b0381166000908152600c6020526040902060609061069d906119d8565b6113e36000805160206123c183398151915233610fba565b6113ff5760405162461bcd60e51b81526004016106d790612196565b600061140a83610de7565b905060006114188585610ea3565b9050828110156114905760405162461bcd60e51b815260206004820152603c60248201527f52414841543a20416d6f756e742072657175657374656420697320677265617460448201527f6572207468616e2062656e65666963696172792062616c616e63652e0000000060648201526084016106d7565b336000908152600e6020908152604080832085845282529182902060028101805460ff191690558581554260038201559151858152869132917f79ef0b2282f5e45718748b37d5a89727c1544ad2f78b126efa97c32ac1f1d232910161098c565b606060006115008360026122c0565b61150b906002612294565b6001600160401b03811115611522576115226123aa565b6040519080825280601f01601f19166020018201604052801561154c576020820181803683370190505b509050600360fc1b8160008151811061156757611567612394565b60200101906001600160f81b031916908160001a905350600f60fb1b8160018151811061159657611596612394565b60200101906001600160f81b031916908160001a90535060006115ba8460026122c0565b6115c5906001612294565b90505b600181111561163d576f181899199a1a9b1b9c1cb0b131b232b360811b85600f16601081106115f9576115f9612394565b1a60f81b82828151811061160f5761160f612394565b60200101906001600160f81b031916908160001a90535060049490941c9361163681612322565b90506115c8565b50831561168c5760405162461bcd60e51b815260206004820181905260248201527f537472696e67733a20686578206c656e67746820696e73756666696369656e7460448201526064016106d7565b9392505050565b60006001600160e01b03198216637965db0b60e01b148061069d57506301ffc9a760e01b6001600160e01b031983161461069d565b600061168c83836119e5565b6116de8282610fba565b610cf4576116f6816001600160a01b031660146114f1565b6117018360206114f1565b604051602001611712929190612024565b60408051601f198184030181529082905262461bcd60e51b82526106d791600401612139565b6117428282610fba565b610cf4576000828152602081815260408083206001600160a01b03851684529091529020805460ff191660011790556117783390565b6001600160a01b0316816001600160a01b0316837f2f8788117e7eff1d82e926ec794901d17c78024a50270940304540a733656f0d60405160405180910390a45050565b6117c68282610fba565b15610cf4576000828152602081815260408083206001600160a01b0385168085529252808320805460ff1916905551339285917ff6391f5c32d9c69d2a47ea670b442974b53935d1edc7fd64eb21e047a839171b9190a45050565b6060816118455750506040805180820190915260018152600360fc1b602082015290565b8160005b811561186f578061185981612339565b91506118689050600a836122ac565b9150611849565b6000816001600160401b03811115611889576118896123aa565b6040519080825280601f01601f1916602001820160405280156118b3576020820181803683370190505b5090505b841561191e576118c86001836122df565b91506118d5600a86612354565b6118e0906030612294565b60f81b8183815181106118f5576118f5612394565b60200101906001600160f81b031916908160001a905350611917600a866122ac565b94506118b7565b949350505050565b606061168c838360405180606001604052806027815260200161242160279139611a34565b6001600160a01b0381166000908152600183016020526040812054151561168c565b600082815260046020526040902054611987908290612294565b6000838152600460209081526040808320939093556003905220546119ad908290612294565b6000928352600360205260409092209190915550565b600061168c836001600160a01b0384166119e5565b6060600061168c83611b08565b6000818152600183016020526040812054611a2c5750815460018181018455600084815260208082209093018490558454848252828601909352604090209190915561069d565b50600061069d565b6060833b611a935760405162461bcd60e51b815260206004820152602660248201527f416464726573733a2064656c65676174652063616c6c20746f206e6f6e2d636f6044820152651b9d1c9858dd60d21b60648201526084016106d7565b600080856001600160a01b031685604051611aae9190612008565b600060405180830381855af49150503d8060008114611ae9576040519150601f19603f3d011682016040523d82523d6000602084013e611aee565b606091505b5091509150611afe828286611b64565b9695505050505050565b606081600001805480602002602001604051908101604052809291908181526020018280548015611b5857602002820191906000526020600020905b815481526020019060010190808311611b44575b50505050509050919050565b60608315611b7357508161168c565b825115611b835782518084602001fd5b8160405162461bcd60e51b81526004016106d79190612139565b80356001600160a01b0381168114611bb457600080fd5b919050565b600082601f830112611bca57600080fd5b81356001600160401b03811115611be357611be36123aa565b611bf6601f8201601f1916602001612264565b818152846020838601011115611c0b57600080fd5b816020850160208301376000918101602001919091529392505050565b600060208284031215611c3a57600080fd5b61168c82611b9d565b60008060408385031215611c5657600080fd5b611c5f83611b9d565b946020939093013593505050565b60008060408385031215611c8057600080fd5b611c8983611b9d565b915060208301356001600160401b03811115611ca457600080fd5b611cb085828601611bb9565b9150509250929050565b60008060008060808587031215611cd057600080fd5b611cd985611b9d565b966020860135965060408601359560600135945092505050565b60008060208385031215611d0657600080fd5b82356001600160401b0380821115611d1d57600080fd5b818501915085601f830112611d3157600080fd5b813581811115611d4057600080fd5b8660208260051b8501011115611d5557600080fd5b60209290920196919550909350505050565b60006020808385031215611d7a57600080fd5b82356001600160401b0380821115611d9157600080fd5b818501915085601f830112611da557600080fd5b813581811115611db757611db76123aa565b8060051b9150611dc8848301612264565b8181528481019084860184860187018a1015611de357600080fd5b600095505b83861015611e06578035835260019590950194918601918601611de8565b5098975050505050505050565b600060208284031215611e2557600080fd5b8151801515811461168c57600080fd5b600060208284031215611e4757600080fd5b5035919050565b60008060408385031215611e6157600080fd5b82359150611e7160208401611b9d565b90509250929050565b60008060008060008060c08789031215611e9357600080fd5b505084359660208601359650604086013595606081013595506080810135945060a0013592509050565b600060208284031215611ecf57600080fd5b81356001600160e01b03198116811461168c57600080fd5b600060208284031215611ef957600080fd5b81356001600160401b03811115611f0f57600080fd5b61191e84828501611bb9565b60008060408385031215611f2e57600080fd5b82356001600160401b03811115611f4457600080fd5b611f5085828601611bb9565b95602094909401359450505050565b600080600060608486031215611f7457600080fd5b83356001600160401b03811115611f8a57600080fd5b611f9686828701611bb9565b9660208601359650604090950135949350505050565b60008060408385031215611fbf57600080fd5b8235915060208301356001600160401b03811115611ca457600080fd5b60008151808452611ff48160208601602086016122f6565b601f01601f19169290920160200192915050565b6000825161201a8184602087016122f6565b9190910192915050565b76020b1b1b2b9b9a1b7b73a3937b61d1030b1b1b7bab73a1604d1b8152600083516120568160178501602088016122f6565b7001034b99036b4b9b9b4b733903937b6329607d1b60179184019182015283516120878160288401602088016122f6565b01602801949350505050565b6000602080830181845280855180835260408601915060408160051b870101925083870160005b828110156120e857603f198886030184526120d6858351611fdc565b945092850192908501906001016120ba565b5092979650505050505050565b6020808252825182820181905260009190848201906040850190845b8181101561212d57835183529284019291840191600101612111565b50909695505050505050565b60208152600061168c6020830184611fdc565b6020808252602a908201527f52414841543a2053656e646572206d75737420626520616e20617574686f72696040820152693d32b21039b2b93b32b960b11b606082015260800190565b6020808252602a908201527f52414841543a2053656e646572204d757374206265206120726567697374657260408201526932b2103b32b73237b91760b11b606082015260800190565b6020808252601f908201527f52414841543a2053656e646572206d75737420626520616e2061646d696e2e00604082015260600190565b6000808335601e1984360301811261222e57600080fd5b8301803591506001600160401b0382111561224857600080fd5b60200191503681900382131561225d57600080fd5b9250929050565b604051601f8201601f191681016001600160401b038111828210171561228c5761228c6123aa565b604052919050565b600082198211156122a7576122a7612368565b500190565b6000826122bb576122bb61237e565b500490565b60008160001904831182151516156122da576122da612368565b500290565b6000828210156122f1576122f1612368565b500390565b60005b838110156123115781810151838201526020016122f9565b838111156107065750506000910152565b60008161233157612331612368565b506000190190565b600060001982141561234d5761234d612368565b5060010190565b6000826123635761236361237e565b500690565b634e487b7160e01b600052601160045260246000fd5b634e487b7160e01b600052601260045260246000fd5b634e487b7160e01b600052603260045260246000fd5b634e487b7160e01b600052604160045260246000fdfe0aaf57387812c7f832412470a57567b5648a930069be49aa9c98d04f88520d34be9e90431f28bd12a87a51b26b014cab620a8a4819bf73d87369ccbe6800a76ccaa7f6290f33308266ee2988386694ac9bc3612b5df272e3502129925a64f997416464726573733a206c6f772d6c6576656c2064656c65676174652063616c6c206661696c6564a2646970667358221220544a4879f927a5f349c90756ac79787a7b5069eabd1c24b8f02ba8172fa3e15f64736f6c63430008070033caa7f6290f33308266ee2988386694ac9bc3612b5df272e3502129925a64f997",
  "immutableReferences": {},
  "source": "//SPDX-License-Identifier: LGPL-3.0\r\n//TODO add balance of beneficiary per project\r\n//TODO suspend mobilizer and vendor\r\n//TODO test tokenissue by mobilizer\r\n//TODO test otp set by server account and otp submission by vendor account\r\n//TODO revole roles\r\n\r\npragma solidity 0.8.7;\r\nimport \"./RahatERC20.sol\";\r\nimport \"@openzeppelin/contracts/utils/structs/EnumerableSet.sol\";\r\nimport \"@openzeppelin/contracts/utils/cryptography/ECDSA.sol\";\r\nimport \"@openzeppelin/contracts/utils/Multicall.sol\";\r\n\r\ncontract Regulator is AccessControl, Multicall {\r\n  using Strings for uint256;\r\n  using EnumerableSet for EnumerableSet.Bytes32Set;\r\n  using EnumerableSet for EnumerableSet.AddressSet;\r\n  using EnumerableSet for EnumerableSet.UintSet;\r\n  using ECDSA for bytes32;\r\n\r\n  //***** Events *********//\r\n  event ClaimedERC20(\r\n    address indexed vendor,\r\n    uint256 indexed beneficiary,\r\n    uint256 amount\r\n  );\r\n  event ClaimApproved(\r\n    address indexed vendor,\r\n    uint256 indexed phone,\r\n    uint256 amount\r\n  );\r\n  event IssuedERC20(\r\n    bytes32 indexed projectId,\r\n    uint256 indexed phone,\r\n    uint256 amount\r\n  );\r\n\r\n  event ClaimAcquiredERC20(\r\n    address indexed vendor,\r\n    uint256 indexed beneficiary,\r\n    uint256 amount\r\n  );\r\n\r\n  event InvalidSignature(\r\n    bytes signature,\r\n    bytes32 digest,\r\n    address expectedSigner,\r\n    address recoveredSigner\r\n  );\r\n\r\n  //event BalanceAdjusted(uint256 indexed phone, uint256 amount, string reason);\r\n\r\n  //***** Constant Variables (Roles) *********//\r\n  bytes32 public constant SERVER_ROLE = keccak256(\"SERVER\");\r\n  bytes32 public constant VENDOR_ROLE = keccak256(\"VENDOR\");\r\n  bytes32 public constant MANAGER_ROLE = keccak256(\"MANAGER\");\r\n  bytes32 public constant MOBILIZER_ROLE = keccak256(\"MOBILIZER\");\r\n  bytes32 public constant ISSUE_TOKEN = keccak256(\"issueToken\");\r\n  bytes32 public constant CREATE_CLAIM = keccak256(\"createClaim\");\r\n  bytes32 public constant GET_TOKENS_FROM_CLAIM = keccak256(\r\n    \"getTokensFromClaim\"\r\n  );\r\n\r\n  mapping(address => uint256) public nonces; //delegated users nonces\r\n\r\n  //***** Variables (State) *********//\r\n  //AidToke public tokenContract;\r\n  RahatERC20 public erc20;\r\n\r\n  ///@notice track total issued tokens of each benefiicary phone\r\n  mapping(uint256 => uint256) public erc20Issued; //phone=>balance\r\n\r\n  /// @notice track balances of each beneficiary phone\r\n  mapping(uint256 => uint256) public erc20Balance; //phone=>balance\r\n  mapping(uint256 => uint256) public retrievedBalance; //phone=>retrivedBlance\r\n\r\n  /// @notice track projectBalances\r\n  //bytes32[] public projectId;\r\n  EnumerableSet.Bytes32Set private projectId;\r\n  mapping(bytes32 => uint256) remainingProjectErc20Balances;\r\n  mapping(bytes32 => EnumerableSet.AddressSet) projectMobilizers;\r\n  mapping(bytes32 => EnumerableSet.AddressSet) projectVendors;\r\n\r\n  mapping(address => uint256) public erc20IssuedBy;\r\n  mapping(address => EnumerableSet.UintSet) tokenIdsIssuedBy; // Address => tokenIds[]\r\n  mapping(bytes32 => EnumerableSet.UintSet) beneficiariesInProject; // Address => tokenIds[]\r\n\r\n  struct claim {\r\n    uint256 amount;\r\n    bytes32 otpHash;\r\n    bool isReleased;\r\n    uint256 date;\r\n  }\r\n  struct disbursement {\r\n    uint256 disbursementAmount;\r\n    uint256 disbursementFrequency;\r\n    uint256 startDate;\r\n    uint256 endDate;\r\n    uint256 totalAmount;\r\n  }\r\n  /// @dev vendorAddress => phone => claim\r\n  mapping(address => mapping(bytes32 => claim)) public recentERC20Claims;\r\n  mapping(bytes32 => disbursement) public projectDisbursements;\r\n\r\n  //***** Constructor *********//\r\n  constructor(RahatERC20 _erc20, address _admin) {\r\n    _setupRole(DEFAULT_ADMIN_ROLE, tx.origin);\r\n    _setupRole(DEFAULT_ADMIN_ROLE, _admin);\r\n    _setRoleAdmin(SERVER_ROLE, DEFAULT_ADMIN_ROLE);\r\n    _setRoleAdmin(VENDOR_ROLE, DEFAULT_ADMIN_ROLE);\r\n    grantRole(SERVER_ROLE, msg.sender);\r\n    erc20 = _erc20;\r\n  }\r\n\r\n  function supportsInterface(bytes4 interfaceId)\r\n    public\r\n    view\r\n    virtual\r\n    override(AccessControl)\r\n    returns (bool)\r\n  {\r\n    return super.supportsInterface(interfaceId);\r\n  }\r\n\r\n  //***** Modifiers *********//\r\n  modifier OnlyServer() {\r\n    require(\r\n      hasRole(SERVER_ROLE, msg.sender),\r\n      \"RAHAT: Sender must be an authorized server\"\r\n    );\r\n    _;\r\n  }\r\n  modifier OnlyAdmin() {\r\n    require(\r\n      hasRole(DEFAULT_ADMIN_ROLE, msg.sender),\r\n      \"RAHAT: Sender must be an admin.\"\r\n    );\r\n    _;\r\n  }\r\n  modifier IsBeneficiary(uint256 _phone) {\r\n    bytes32 _benId = findHash(_phone);\r\n    require(\r\n      erc20Balance[_phone] != 0,\r\n      \"RAHAT: No any token was issued to this number\"\r\n    );\r\n    _;\r\n  }\r\n  modifier OnlyVendor() {\r\n    require(\r\n      hasRole(VENDOR_ROLE, msg.sender),\r\n      \"RAHAT: Sender Must be a registered vendor.\"\r\n    );\r\n    _;\r\n  }\r\n  modifier OnlyAdminOrMobilizer() {\r\n    require(\r\n      (hasRole(DEFAULT_ADMIN_ROLE, msg.sender) ||\r\n        hasRole(MOBILIZER_ROLE, msg.sender)),\r\n      \"RAHAT: Sender Must be a registered Admin Or Mobilizer.\"\r\n    );\r\n    _;\r\n  }\r\n\r\n  // #region `AccessControl` interface methods\r\n  //***** Methods *********\r\n  //Access Control Management\r\n  /// @notice add admin of the this contract\r\n  /// @param _account address of the new admin\r\n  function addAdmin(address _account) external OnlyAdmin {\r\n    grantRole(DEFAULT_ADMIN_ROLE, _account);\r\n  }\r\n\r\n  /// @notice add server account for this contract\r\n  /// @param _account address of the new server account\r\n  function addServer(address _account) external OnlyAdmin {\r\n    grantRole(SERVER_ROLE, _account);\r\n  }\r\n\r\n  /// @notice add vendors\r\n  /// @param _account address of the new vendor\r\n  function addVendor(address _account) external OnlyAdmin {\r\n    grantRole(VENDOR_ROLE, _account);\r\n  }\r\n\r\n  /// @notice add vendors\r\n  /// @param _account address of the new vendor\r\n  /// @param _projectId projectId\r\n  function addMobilizer(address _account, string memory _projectId)\r\n    external\r\n    OnlyAdmin\r\n  {\r\n    bytes32 _id = findHash(_projectId);\r\n    grantRole(MOBILIZER_ROLE, _account);\r\n    projectMobilizers[_id].add(_account);\r\n  }\r\n\r\n  // #endregion\r\n\r\n  function getTokenIdsIssuedBy(address _address)\r\n    public\r\n    view\r\n    returns (uint256[] memory tokenIds)\r\n  {\r\n    return tokenIdsIssuedBy[_address].values();\r\n  }\r\n\r\n  //Beneficiary Management\r\n\r\n  function addBeneficiaryToProject(uint256 _phone, string memory _projectId)\r\n    external\r\n    OnlyServer\r\n  {\r\n    bytes32 _id = findHash(_projectId);\r\n    beneficiariesInProject[_id].add(_phone);\r\n  }\r\n\r\n  //1 hour = 3600\r\n  //1 day = 86400\r\n  //1 week = 604800\r\n  //1 month = 2592000\r\n  //1 year = 31536000\r\n  function allocateBudgetToProject(\r\n    bytes32 _projectId,\r\n    uint256 _disbursementAmount,\r\n    uint256 _disbursementFrequency,\r\n    uint256 _startDate,\r\n    uint256 _endDate,\r\n    uint256 _totalAmount\r\n  ) external {\r\n    require(_startDate < _endDate, \"end date must be greater than start date\");\r\n    remainingProjectErc20Balances[_projectId] += _totalAmount;\r\n    disbursement storage _disbursement = projectDisbursements[_projectId];\r\n    _disbursement.disbursementAmount = _disbursementAmount;\r\n    _disbursement.disbursementFrequency = _disbursementFrequency;\r\n    _disbursement.startDate = _startDate;\r\n    _disbursement.endDate = _endDate;\r\n    _disbursement.totalAmount = _totalAmount;\r\n  }\r\n\r\n  ///@dev fetch beneficiary balance based of project duration and project budget\r\n  function fetchBeneficiaryBalance(string memory _projectId, uint256 _phone)\r\n    public\r\n    view\r\n    returns (uint256)\r\n  {\r\n    disbursement memory _disbursement = projectDisbursements[findHash(\r\n      _projectId\r\n    )];\r\n    uint256 _retrievalCycle;\r\n    if (_disbursement.startDate > block.timestamp) return 0;\r\n    if (_disbursement.disbursementFrequency == 0) return 0;\r\n    if (block.timestamp > _disbursement.endDate) {\r\n      _retrievalCycle =\r\n        (_disbursement.endDate - _disbursement.startDate) /\r\n        _disbursement.disbursementFrequency;\r\n    } else {\r\n      _retrievalCycle =\r\n        (block.timestamp - _disbursement.startDate) /\r\n        _disbursement.disbursementFrequency;\r\n    }\r\n\r\n    uint256 _retrievedBalance = retrievedBalance[_phone];\r\n    uint256 _estimatedBlance = _disbursement.disbursementAmount *\r\n      _retrievalCycle;\r\n    return _estimatedBlance - _retrievedBalance;\r\n  }\r\n\r\n  /// @notice adds the token from beneficiary\r\n  function adjustTokenAdd(uint256 _phone, uint256 _amount) private {\r\n    // bytes32 _benId = findHash(_phone);\r\n    erc20Balance[_phone] = erc20Balance[_phone] + _amount;\r\n    erc20Issued[_phone] = erc20Issued[_phone] + _amount;\r\n    //emit BalanceAdjusted(_phone, _amount, _reason);\r\n  }\r\n\r\n  /// @notice deducts the token from beneficiary\r\n  function adjustTokenDeduct(uint256 _phone, uint256 _amount) private {\r\n    //bytes32 _benId = findHash(_phone);\r\n    erc20Balance[_phone] = erc20Balance[_phone] - _amount;\r\n    //emit BalanceAdjusted(_phone, _amount, _reason);\r\n  }\r\n\r\n  // /// @notice update a project balance.\r\n  // /// @notice called by rahatdmin contract\r\n  // /// @param _projectId Id of the project to assign budget\r\n  // /// @param _projectCapital amount of budget to be added to project\r\n  // function updateProjectBudget(bytes32 _projectId, uint256 _projectCapital)\r\n  //   internal\r\n  // {\r\n  //   remainingProjectErc20Balances[_projectId] += _projectCapital;\r\n  // }\r\n\r\n  /// @notice get the current balance of project\r\n  function getProjectBalance(bytes32 _projectId)\r\n    external\r\n    view\r\n    returns (uint256 _balance)\r\n  {\r\n    return remainingProjectErc20Balances[_projectId];\r\n  }\r\n\r\n  function verifyVendor(bytes32 _hash, bytes memory _signature)\r\n    internal\r\n    view\r\n    returns (address)\r\n  {\r\n    address _signer = _hash.recover(_signature);\r\n    require(hasRole(VENDOR_ROLE, _signer), \"Signer should be Mobilizer\");\r\n    return _signer;\r\n  }\r\n\r\n  function verifyMobilizer(bytes32 _hash, bytes memory _signature)\r\n    internal\r\n    view\r\n    returns (address)\r\n  {\r\n    address _signer = _hash.recover(_signature);\r\n    require(hasRole(MOBILIZER_ROLE, _signer), \"Signer should be Mobilizer\");\r\n    return _signer;\r\n  }\r\n\r\n  /// @notice Issue tokens to beneficiary\r\n  /// @param _projectId Id of the project beneficiary is involved in\r\n  /// @param _phone phone number of the beneficiary\r\n  /// @param _amount Amount of token to be assigned to beneficiary\r\n  function issueERC20ToBeneficiary(\r\n    string memory _projectId,\r\n    uint256 _phone,\r\n    uint256 _amount\r\n  ) public OnlyAdminOrMobilizer {\r\n    bytes32 _id = findHash(_projectId);\r\n\r\n    if (hasRole(MOBILIZER_ROLE, msg.sender)) {\r\n      require(\r\n        projectMobilizers[_id].contains(msg.sender),\r\n        \"mobilizer is not onboarded to given project\"\r\n      );\r\n    }\r\n    erc20IssuedBy[msg.sender] += _amount;\r\n\r\n    require(\r\n      remainingProjectErc20Balances[_id] >= _amount,\r\n      \"RAHAT: Amount is greater than remaining Project Budget\"\r\n    );\r\n    remainingProjectErc20Balances[_id] -= _amount;\r\n    adjustTokenAdd(_phone, _amount);\r\n\r\n    emit IssuedERC20(_id, _phone, _amount);\r\n  }\r\n\r\n  /// @notice request a token to beneficiary by vendor\r\n  /// @param _phone Phone number of beneficiary to whom token is requested\r\n  /// @param _tokens Number of tokens to request\r\n  function createERC20Claim(\r\n    string memory _projectId,\r\n    uint256 _phone,\r\n    uint256 _tokens\r\n  ) public OnlyVendor {\r\n    bytes32 _benId = findHash(_phone);\r\n    uint256 _beneficiaryBalance = fetchBeneficiaryBalance(_projectId, _phone);\r\n    require(\r\n      _beneficiaryBalance >= _tokens,\r\n      \"RAHAT: Amount requested is greater than beneficiary balance.\"\r\n    );\r\n\r\n    claim storage ac = recentERC20Claims[msg.sender][_benId];\r\n    ac.isReleased = false;\r\n    ac.amount = _tokens;\r\n    ac.date = block.timestamp;\r\n    emit ClaimedERC20(tx.origin, _phone, _tokens);\r\n  }\r\n\r\n  /// @notice Approve the requested claim from serverside and set the otp hash\r\n  /// @param _vendor Address of the vendor who requested the token from beneficiary\r\n  /// @param _phone Phone number of the beneficiary, to whom token request was sent\r\n  /// @param _otpHash Hash of OTP sent to beneficiary by server\r\n  /// @param _timeToLive Validity of OTP in seconds\r\n  function approveERC20Claim(\r\n    address _vendor,\r\n    uint256 _phone,\r\n    bytes32 _otpHash,\r\n    uint256 _timeToLive\r\n  ) public OnlyServer {\r\n    bytes32 _benId = findHash(_phone);\r\n    claim storage ac = recentERC20Claims[_vendor][_benId];\r\n    require(ac.date != 0, \"RAHAT: Claim has not been created yet\");\r\n    require(\r\n      _timeToLive <= 86400,\r\n      \"RAHAT:Time To Live should be less than 24 hours\"\r\n    );\r\n    require(\r\n      block.timestamp <= ac.date + 86400,\r\n      \"RAHAT: Claim is older than 24 hours\"\r\n    );\r\n    require(!ac.isReleased, \"RAHAT: Claim has already been released.\");\r\n    ac.otpHash = _otpHash;\r\n    ac.isReleased = true;\r\n    ac.date = block.timestamp + _timeToLive;\r\n    emit ClaimApproved(_vendor, _phone, ac.amount);\r\n  }\r\n\r\n  /// @notice Retrieve tokens that was requested to beneficiary by entering OTP\r\n  /// @param _phone Phone Number of the beneficiary, to whom token request was sent\r\n  /// @param _otp OTP sent by the server\r\n  function getERC20FromClaim(uint256 _phone, string memory _otp)\r\n    public\r\n    OnlyVendor\r\n  {\r\n    bytes32 _benId = findHash(_phone);\r\n    claim storage ac = recentERC20Claims[msg.sender][_benId];\r\n    require(ac.isReleased, \"RAHAT: Claim has not been released.\");\r\n    require(ac.date >= block.timestamp, \"RAHAT: Claim has already expired.\");\r\n    bytes32 otpHash = findHash(_otp);\r\n    require(\r\n      recentERC20Claims[msg.sender][_benId].otpHash == otpHash,\r\n      \"RAHAT: OTP did not match.\"\r\n    );\r\n    uint256 amt = ac.amount;\r\n    retrievedBalance[_phone] += amt;\r\n    ac.isReleased = false;\r\n    ac.amount = 0;\r\n    ac.date = 0;\r\n    erc20.transfer(msg.sender, amt);\r\n\r\n    emit ClaimAcquiredERC20(msg.sender, _phone, amt);\r\n  }\r\n\r\n  /// @notice generates the hash of the given string\r\n  /// @param _data String of which hash is to be generated\r\n  function findHash(string memory _data) public pure returns (bytes32) {\r\n    return keccak256(abi.encodePacked(_data));\r\n  }\r\n\r\n  /// @notice generates the hash of the given string\r\n  /// @param _data String of which hash is to be generated\r\n  function findHash(uint256 _data) public pure returns (bytes32) {\r\n    return keccak256(abi.encodePacked(_data.toString()));\r\n  }\r\n\r\n  /// @notice Generates the sum of all the integers in array\r\n  /// @param _array Array of uint\r\n  function getArraySum(uint256[] memory _array)\r\n    public\r\n    pure\r\n    returns (uint256 sum)\r\n  {\r\n    sum = 0;\r\n    for (uint256 i = 0; i < _array.length; i++) {\r\n      sum += _array[i];\r\n    }\r\n    return sum;\r\n  }\r\n}\r\n",
  "sourcePath": "D:\\projects\\g20\\cbdc-contracts\\contracts\\Rahat.sol",
  "compiler": {
    "name": "solc",
    "version": "0.8.7+commit.e28d00a7.Emscripten.clang"
  },
  "schemaVersion": "3.4.3",
  "updatedAt": "2022-08-26T09:58:40.953Z",
  "devdoc": {
    "kind": "dev",
    "methods": {
      "addAdmin(address)": {
        "params": {
          "_account": "address of the new admin"
        }
      },
      "addMobilizer(address,string)": {
        "params": {
          "_account": "address of the new vendor",
          "_projectId": "projectId"
        }
      },
      "addServer(address)": {
        "params": {
          "_account": "address of the new server account"
        }
      },
      "addVendor(address)": {
        "params": {
          "_account": "address of the new vendor"
        }
      },
      "approveERC20Claim(address,uint256,bytes32,uint256)": {
        "params": {
          "_otpHash": "Hash of OTP sent to beneficiary by server",
          "_phone": "Phone number of the beneficiary, to whom token request was sent",
          "_timeToLive": "Validity of OTP in seconds",
          "_vendor": "Address of the vendor who requested the token from beneficiary"
        }
      },
      "createERC20Claim(string,uint256,uint256)": {
        "params": {
          "_phone": "Phone number of beneficiary to whom token is requested",
          "_tokens": "Number of tokens to request"
        }
      },
      "fetchBeneficiaryBalance(string,uint256)": {
        "details": "fetch beneficiary balance based of project duration and project budget"
      },
      "findHash(string)": {
        "params": {
          "_data": "String of which hash is to be generated"
        }
      },
      "findHash(uint256)": {
        "params": {
          "_data": "String of which hash is to be generated"
        }
      },
      "getArraySum(uint256[])": {
        "params": {
          "_array": "Array of uint"
        }
      },
      "getERC20FromClaim(uint256,string)": {
        "params": {
          "_otp": "OTP sent by the server",
          "_phone": "Phone Number of the beneficiary, to whom token request was sent"
        }
      },
      "getRoleAdmin(bytes32)": {
        "details": "Returns the admin role that controls `role`. See {grantRole} and {revokeRole}. To change a role's admin, use {_setRoleAdmin}."
      },
      "grantRole(bytes32,address)": {
        "details": "Grants `role` to `account`. If `account` had not been already granted `role`, emits a {RoleGranted} event. Requirements: - the caller must have ``role``'s admin role."
      },
      "hasRole(bytes32,address)": {
        "details": "Returns `true` if `account` has been granted `role`."
      },
      "issueERC20ToBeneficiary(string,uint256,uint256)": {
        "params": {
          "_amount": "Amount of token to be assigned to beneficiary",
          "_phone": "phone number of the beneficiary",
          "_projectId": "Id of the project beneficiary is involved in"
        }
      },
      "multicall(bytes[])": {
        "details": "Receives and executes a batch of function calls on this contract."
      },
      "renounceRole(bytes32,address)": {
        "details": "Revokes `role` from the calling account. Roles are often managed via {grantRole} and {revokeRole}: this function's purpose is to provide a mechanism for accounts to lose their privileges if they are compromised (such as when a trusted device is misplaced). If the calling account had been revoked `role`, emits a {RoleRevoked} event. Requirements: - the caller must be `account`."
      },
      "revokeRole(bytes32,address)": {
        "details": "Revokes `role` from `account`. If `account` had been granted `role`, emits a {RoleRevoked} event. Requirements: - the caller must have ``role``'s admin role."
      },
      "supportsInterface(bytes4)": {
        "details": "See {IERC165-supportsInterface}."
      }
    },
    "stateVariables": {
      "recentERC20Claims": {
        "details": "vendorAddress => phone => claim"
      }
    },
    "version": 1
  },
  "userdoc": {
    "kind": "user",
    "methods": {
      "addAdmin(address)": {
        "notice": "add admin of the this contract"
      },
      "addMobilizer(address,string)": {
        "notice": "add vendors"
      },
      "addServer(address)": {
        "notice": "add server account for this contract"
      },
      "addVendor(address)": {
        "notice": "add vendors"
      },
      "approveERC20Claim(address,uint256,bytes32,uint256)": {
        "notice": "Approve the requested claim from serverside and set the otp hash"
      },
      "createERC20Claim(string,uint256,uint256)": {
        "notice": "request a token to beneficiary by vendor"
      },
      "erc20Balance(uint256)": {
        "notice": "track balances of each beneficiary phone"
      },
      "erc20Issued(uint256)": {
        "notice": "track total issued tokens of each benefiicary phone"
      },
      "findHash(string)": {
        "notice": "generates the hash of the given string"
      },
      "findHash(uint256)": {
        "notice": "generates the hash of the given string"
      },
      "getArraySum(uint256[])": {
        "notice": "Generates the sum of all the integers in array"
      },
      "getERC20FromClaim(uint256,string)": {
        "notice": "Retrieve tokens that was requested to beneficiary by entering OTP"
      },
      "getProjectBalance(bytes32)": {
        "notice": "get the current balance of project"
      },
      "issueERC20ToBeneficiary(string,uint256,uint256)": {
        "notice": "Issue tokens to beneficiary"
      }
    },
    "version": 1
  }
}